:020000040800F2
:1000000000280020693A0008630200086502000821
:1000100067020008690200086B0200080000000087
:100020000000000000000000000000006D02000859
:100030006F0200080000000071020008730200084F
:10004000B13A0008B13A0008B13A0008B13A0008E4
:10005000B13A0008B13A0008B13A0008B13A0008D4
:10006000B13A0008B13A0008B13A0008B13A0008C4
:10007000B13A0008B13A0008B13A0008B13A0008B4
:10008000B13A0008B13A0008B13A0008B13A0008A4
:100090007D020008B13A0008B13A0008B13A000800
:1000A000B13A0008B13A0008B13A0008B13A000884
:1000B000B13A0008B13A000800000000B13A000867
:1000C000B13A00080000000000000000B13A00084A
:1000D00000000000B13A0008B13A0008000000003A
:1000E000B13A0008B13A0008B13A00080000000037
:1000F0000000000000000000000000000000000000
:0C01000000000000000000005FF808F1A3
:10010C000348044B834202D0034B03B1184770479A
:10011C004001002040010020000000000548064B73
:10012C001B1AD90F01EBA301491002D0034B03B1E9
:10013C0018477047400100204001002000000000DB
:10014C0010B5064C237843B9FFF7DAFF044B13B113
:10015C000448AFF300800123237010BD4001002040
:10016C00000000000C3B000808B5054B1BB105490D
:10017C000548AFF30080BDE80840FFF7CFBF00BFD4
:10018C0000000000440100200C3B000882B00A4B28
:10019C009A6942F020029A619A6902F02002009258
:1001AC00009A9A6942F004029A619B6903F0040375
:1001BC000193019B02B070470010024072B6FEE73B
:1001CC0000B595B0282200210DEB020003F06BFC6A
:1001DC0000230593069307930893099301930293C5
:1001EC000393049301220A924FF480330B930E92E3
:1001FC000222119212934FF4E01313930AA802F007
:10020C004BFAC0B90F2305930221069100230793E3
:10021C004FF480620892099305A802F06FFC60B954
:10022C00102301930023049301A802F01DFD30B9A3
:10023C0015B05DF804FBFFF7C1FFFFF7BFFFFFF739
:10024C00BDFF08B502F0EEF9FFF7BAFFFFF79EFF0E
:10025C0000F038F8FEE7FEE7FEE7FEE7FEE7FEE714
:10026C0070477047704708B502F0EEF908BD000002
:10027C0008B5024800F0ECFF08BD00BF40060020A6
:10028C0082B00E4B9A6942F001029A619A6902F0AF
:10029C0001020092009ADA6942F08052DA61DB695D
:1002AC0003F080530193019B054A536823F0E063EC
:1002BC0043F08063536002B0704700BF00100240EF
:1002CC000000014008B500220F49104802F0D1FD92
:1002DC0070B90F490D4802F0E3FD60B90D490B48A8
:1002EC0003F0B4FB50B9094802F0E1FD48B908BD70
:1002FC00FFF764FFEDE7FFF761FFEFE7FFF75EFF46
:10030C00F1E7FFF75BFFF2E7340000205C0100200F
:10031C00080100205000002012230B800048704779
:10032C002000002004230B80004870471C00002094
:10033C00002393421ED200B510E00CF1370C01F8EB
:10034C0013C000014FEA430C0CF1010C4FF0000EEE
:10035C0001F80CE00133DBB2934209D24FEA107C76
:10036C00B0F1204FE9D20CF1300C01F813C0E8E7E2
:10037C005DF804FB7047000038B50B4BD3F8E80769
:10038C00D3F8EC47D3F8F037C01800D138BD074D7F
:10039C0008222946FFF7CCFF042205F11001204664
:1003AC00FFF7C6FFF2E700BF00F0FF1F02000020BE
:1003BC0008B51A230B80FFF7DFFF014808BD00BF0B
:1003CC000000002008B50A4628B90549054803F085
:1003DC00C6F9034808BD0249024803F0C0F9F8E722
:1003EC0020040020243B000810B50A46034C21468B
:1003FC00034803F0B4F9204610BD00BF20040020D0
:10040C00443B000808B50A4628B90549054803F0DD
:10041C00A6F9034808BD0249024803F0A0F9F8E721
:10042C0020040020583B000808B50A4628B90549A5
:10043C00054803F094F9034808BD0249024803F04B
:10044C008EF9F8E7200400206C3B00080020704770
:10045C000020704700207047022805D8DFE800F024
:10046C0005040200012070470220704702680E4B01
:10047C009A4200D0704700B583B003F5DA33DA69DD
:10048C0042F40002DA61DB6903F400030193019B7F
:10049C0000221146142002F0B9FC142002F0C6FC14
:1004AC0003B05DF804FB00BF005C004008B500F52C
:1004BC002671D0F8D40202F012FD08BD08B501EB8C
:1004CC00810300EBC303D3F86421D0F8D40202F00B
:1004DC0033FD08BD08B501EB810300EBC3035A6A79
:1004EC00D0F8D40202F06EFD08BD08B5D0F8D402E5
:1004FC0002F00FFE08BD10B504468379022B09D11A
:10050C000121D4F8D40202F0EDFDD4F8D40202F0AB
:10051C00C1FD10BDFFF752FEF2E7000010B5044616
:10052C00D0F8D40202F0E1FDA37A23B1024A136998
:10053C0043F00603136110BD00ED00E008B5D0F8E0
:10054C00D40202F0DBFD08BD10B504461948C0F812
:10055C00D442C4F8C002184B036008230371022371
:10056C00837100238372C372037300F015F9E8B929
:10057C00182300221146D4F8C00201F07BF858234E
:10058C0000228021D4F8C00201F074F898230022D4
:10059C008121D4F8C00201F06DF8D823002201218A
:1005AC00D4F8C00201F066F8002010BDFFF706FE7B
:1005BC00DEE700BF40060020005C004008B5D0F824
:1005CC00C00200F05DF9FFF747FF08BD08B594467F
:1005DC001A466346D0F8C00200F012FFFFF73CFF4A
:1005EC0008BD08B5D0F8C00200F04CFFFFF734FF8F
:1005FC0008BD08B5D0F8C00200F0BDFFFFF72CFF16
:10060C0008BD08B5D0F8C00200F0F5FFFFF724FFD5
:10061C0008BDD0F8C03211F0800F08D101F07F0175
:10062C0001EB810103EBC10393F85201704701F018
:10063C007F0101EB810103EBC103987C704708B586
:10064C00D0F8C00200F0F1FDFFF706FF08BD08B5B9
:10065C00D0F8C00200F069FFFFF7FEFE08BD08B538
:10066C00D0F8C00200F044FFFFF7F6FE08BD000012
:10067C0000487047200600207047704738B512F4C8
:10068C00804F44D00468B4F850309BB291F800C04D
:10069C0003EBCC03023304EB4304B4F80044C4F37F
:1006AC0009048B69A34228D31B1B8B618B697BB913
:1006BC00056835F82C309BB223F4804323F070038B
:1006CC0083F4005343F4004343F0800325F82C30AB
:1006DC0012F0400F0ED002680D7832F825309BB224
:1006EC0023F4E04323F0700343F4004343F0C003CE
:1006FC0022F8253024B9204638BD00238B61D5E77C
:10070C0023460A894969006801F04DFFF3E7046844
:10071C00B4F850309BB291F800C003EBCC03063315
:10072C0004EB4304B4F80044C4F309048B69A342FA
:10073C002FD31B1B8B618B697BB9056835F82C306B
:10074C009BB223F4804323F0700383F4005343F4EF
:10075C00004343F0800325F82C3012F0400F0FD1EA
:10076C00026891F800C032F82C309BB223F4E043BD
:10077C0023F0700343F4004343F0C00322F82C3001
:10078C00002CB8D023464A894969006801F00BFF58
:10079C00B1E700238B61CEE738B500286ED0044654
:1007AC0090F89132A3B1032384F891320023637142
:1007BC00206800F08BFF234653F8040B0ECB00F09F
:1007CC0075FF50B1022384F891320125284638BDBB
:1007DC0080F89032FFF74AFEE5E70021206800F030
:1007EC007FFF034608B9024615E0022384F89132D4
:1007FC000125EBE702EB820104EBC10101204874F7
:10080C000A740020C87408624862013202EB82014B
:10081C00C9006050D2B220799042EBD816E003EBBD
:10082C00830204EBC202002182F8511182F850318C
:10083C0082F85311C2F86011C2F8641103EB830201
:10084C0004EBC202C2F868110133DBB29842E6D85D
:10085C00234653F8040B0ECB00F044FF054620B1A1
:10086C00022384F891320125B0E70023637301233E
:10087C0084F89132206801F094FAA7E70125A5E7E6
:10088C0038B590F89032012B11D00446012580F830
:10089C009052006800F011FF29462046FFF7EDFE4C
:1008AC00206801F07CFA002084F8900238BD022008
:1008BC00FCE770B505460C46164612F0400F00F0EA
:1008CC000E810268B2F850309BB2097803EBC10379
:1008DC00023302EB4302B2F80024C2F30902A3690B
:1008EC0093424ED99B1AA361A369002B66D16378FE
:1008FC00002B49D12B68B3F8502092B2134403EB70
:10090C000113B3F80424C2F30902A3F80424B3F8C6
:10091C0004246FEA42426FEA524292B2A3F80424D2
:10092C002B686278002A3CD1B3F8502092B2134461
:10093C00227803EB0213B3F80C24C2F30902A3F8D8
:10094C000C24B3F80C246FEA42426FEA524292B282
:10095C00A3F80C2421782846FFF7BCFD16F4804F31
:10096C0041D02A68217832F821309BB223F4E0433D
:10097C0023F0700343F4404343F0800322F821300A
:10098C0031E00023A361AFE7012BC9D12B68B3F889
:10099C00502092B2134403EB01130022A3F8042459
:1009AC00BEE7012AD6D1B3F8502092B21344227874
:1009BC0003EB02130022A3F80C24CBE716F4804FB0
:1009CC000DD0286830F821309BB223F4E04323F09B
:1009DC00700343F4404343F0800320F8213094F833
:1009EC002430012B12D02A68217832F821309BB2A6
:1009FC0023F4E04323F0400383F0300343F400433B
:100A0C0043F0800322F82130002070BD6369134449
:100A1C006361E3691344E361216A2369994224D336
:100A2C00C91A21626278002A44D12A68B2F850109F
:100A3C0089B20A44217802EB0112B2F80414C1F312
:100A4C000901A2F804143E2B1BD9580913F01F0FEF
:100A5C0000D10138B2F8041489B2800280B201438B
:100A6C0041F40041A2F8041426E021B9002384F8D3
:100A7C0024301346D6E7002384F8243023620B4637
:100A8C00D0E74BB9B2F804146FEA41416FEA514117
:100A9C0089B2A2F804140FE0590813F0010F00D02A
:100AAC000131B2F8040480B2890289B20143A2F880
:100ABC00041401E0012A06D09BB2228961692868DE
:100ACC0001F077F98FE72A68B2F8501089B20A441E
:100ADC00217802EB011299B2A2F80414ECE7026837
:100AEC00B2F850309BB2097803EBC103063302EB2A
:100AFC004302B2F80024C2F30902A36993424FD314
:100B0C009B1AA361A369002B67D16378002B4AD190
:100B1C002B68B3F8502092B2134403EB0113B3F8D3
:100B2C000424C2F30902A3F80424B3F804246FEAE2
:100B3C0042426FEA524292B2A3F804242B686278C4
:100B4C00002A3DD1B3F8502092B21344227803EB23
:100B5C000213B3F80C24C2F30902A3F80C24B3F863
:100B6C000C246FEA42426FEA524292B2A3F80C2470
:100B7C0021782846FFF7AEFC16F4804F7FF433AF94
:100B8C002A68217832F821309BB223F4E04323F019
:100B9C00700343F4404343F0800322F8213022E7F2
:100BAC000023A361AEE7012BC8D12B68B3F850200A
:100BBC0092B2134403EB01130022A3F80424BDE703
:100BCC00012AD5D1B3F8502092B21344227803EB0A
:100BDC0002130022A3F80C24CAE716F4804F0DD19F
:100BEC00286830F821309BB223F4E04323F07003E3
:100BFC0043F4404343F0800320F8213094F8243030
:100C0C00012B7FF4F0AE636913446361E369134411
:100C1C00E361216A2369994224D3C91A21622A68A3
:100C2C006178002943D1B2F8501089B20A44217876
:100C3C0002EB0112B2F80C14C1F30901A2F80C1466
:100C4C003E2B1BD9580913F01F0F00D10138B2F8F5
:100C5C000C1489B2800280B2014341F40041A2F825
:100C6C000C1426E021B9002384F824301346D6E76F
:100C7C000023236284F824300B46D0E74BB9B2F83A
:100C8C000C146FEA41416FEA514189B2A2F80C147D
:100C9C000FE0590813F0010F00D00131B2F80C0429
:100CAC0080B2890289B20143A2F80C1401E0012937
:100CBC0006D09BB262896169286801F07AF892E6E5
:100CCC00B2F8501089B20A44217802EB011299B2A1
:100CDC00A2F80C14EDE72DE9F04105462868B0F8B0
:100CEC00443013F4004F00F09D82B0F84440A3B29E
:100CFC0014F00F0440F0DE8013F0100F6BD003885B
:100D0C009AB213F4006F40F0998012F4004FE5D0C2
:100D1C00038823F070031B051B0D43F08003038035
:100D2C002868B0F850309BB295F8502103EBC20301
:100D3C00063300EB4303B3F80034C3F30903C5F8DF
:100D4C006C318BB1D5F8641171B1B5F8562101F045
:100D5C002AFCD5F86431D5F86C211344C5F86431FC
:100D6C0000212846FFF7AAFB2A68138899B213F4CE
:100D7C00006FB3D101F44051B1F5405FAED0B2F881
:100D8C0050309BB21A44B2F80C34C3F30903A2F8E6
:100D9C000C34D5F860313E2B73D9590913F01F0F61
:100DAC0000D10139B2F80C349BB2890289B20B43E1
:100DBC0043F40043A2F80C342A6813889BB223F442
:100DCC00804323F0700383F4405343F4004343F017
:100DDC008003138082E703889BB223F4E14323F062
:100DEC0070036FEA43436FEA53439BB203802A6854
:100DFC00B2F850309BB2297C03EBC103023302EBF7
:100E0C004302B2F80034C3F30903EB626A6A1A4472
:100E1C006A6200212846FFF75DFB6B7B002B3FF4D9
:100E2C005DAFAB6A002B7FF459AF6B7B2A6843F044
:100E3C008003A2F84C3000236B734FE7B0F85030AE
:100E4C009BB295F8502103EBC203063300EB43032E
:100E5C00B3F80034C3F30903C5F86C31B5F8562167
:100E6C0005F5267101F09FFB2A68138823F07003A7
:100E7C001B051B0D43F0800313802846FFF716FB60
:100E8C002CE74BB9B2F80C346FEA43436FEA534387
:100E9C009BB2A2F80C348FE7590813F0010F00D065
:100EAC000131B2F80C3498B28B029BB20343A2F816
:100EBC000C3481E730F824309EB213F4004F50D13B
:100ECC0016F0800F3FF40AAF04EB8401C900103117
:100EDC0029442A6832F824309BB223F4E14323F0EE
:100EEC0070036FEA43436FEA53439BB222F82430FA
:100EFC0004EB840305EBC303DB7C012B00F0F280D5
:100F0C0016F4807F40F089812868B0F850309BB28D
:100F1C0004EB840205EBC202167C03EBC60302331E
:100F2C0000EB4303B3F80034C3F30903621C02EB78
:100F3C00820255F832209A4240F25281671C07EB2C
:100F4C008707D21A45F83720621C02EB820255F84B
:100F5C003220002A40F04B8131462846FFF7BAFA7E
:100F6C00BCE630F8243023F070031B051B0D43F056
:100F7C00800320F8243004EB8401C90001F5A8712A
:100F8C0005EB010804EB840305EBC30393F85C3118
:100F9C00002B42D12868B0F850309BB204EB84028D
:100FAC0005EBC20292F8502103EBC203063300EBAF
:100FBC004303B3F80074C7F3090717BB04EB8403AE
:100FCC0005EBC303D3F86C213A44C3F86C21D3F876
:100FDC0064213A44C3F86421D3F868313BB104EB83
:100FEC00840305EBC303D3F860319F4275D204EB45
:100FFC00840305EBC30393F850112846FFF75EFA00
:10100C005EE704EB840105EBC1013B46B1F85621C8
:10101C00D1F8641101F0C7FAD0E704EB840305EBB7
:10102C00C30393F85331022B35D0296804EB8402A7
:10103C0005EBC20292F8500131F820309BB223F438
:10104C00E04323F0700343F4004343F0C00321F862
:10105C002030286892F8502130F8223013F4804F59
:10106C0020D0B0F850309BB203EBC203023300EB3C
:10107C004303B3F80074C7F30907002F9ED004EBA9
:10108C00840105EBC1013B46B1F85821D1F864113C
:10109C0001F089FA92E7324641462846FFF7EEFA0C
:1010AC0007468BE7B0F850309BB203EBC203063314
:1010BC0000EB4303B3F80074C7F30907002F3FF4A8
:1010CC007DAF04EB840105EBC1013B46B1F85A211D
:1010DC00D1F8641101F067FA70E74146286800F016
:1010EC007BFEEDE6631C03EB8303DB000022EA507E
:1010FC0004EB840305EBC3031B7F1BB316F0400FFB
:10110C003BD004EB840305EBC3035B7C1BBB2B685C
:10111C00B3F8502092B2134404EB840205EBC202E4
:10112C00127C03EB0213B3F80424C2F30902A3F8F4
:10113C000424B3F804246FEA42426FEA524292B29A
:10114C00A3F8042404EB840405EBC404217C284696
:10115C00FFF7C0F9C2E5012BF4D12B68B3F850208E
:10116C0092B2134404EB840205EBC202127C03EB33
:10117C0002130022A3F80424E4E72B6804EB840296
:10118C0005EBC202527CD2B9B3F8502092B2134490
:10119C0004EB840205EBC202127C03EB0213B3F8DE
:1011AC000C24C2F30902A3F80C24B3F80C246FEA44
:1011BC0042426FEA524292B2A3F80C24C2E7012ACF
:1011CC00C0D1B3F8502092B2134404EB840205EB67
:1011DC00C202127C03EB02130022A3F80C24B1E729
:1011EC00621C02EB8202D2000027AF50ACE604EB8B
:1011FC00840205EBC202566A1E445662013404EBAB
:10120C00840205EBC202526804EB840405EBC404AF
:10121C001344636000F0E0FD60E532462846FFF7BA
:10122C0048FB5BE50020BDE8F08190F89032012B83
:10123C000CD010B50446012380F89032417300683D
:10124C0000F0A7FD002084F8900210BD022070472A
:10125C0010B584B00446006800F0A5FD10F4004FF2
:10126C0020D110F4806F21D110F4804F2FD110F4C5
:10127C00005F37D110F4805F3ED110F4006F40F066
:10128C00878010F4007F40F0AE8010F4807F27D070
:10129C002268B2F844309BB223F480739BB2A2F85C
:1012AC0044301DE02046FFF716FD19E02268B2F825
:1012BC0044309BB223F480639BB2A2F844302046A6
:1012CC00FFF719F900212046FFF7AFFF08E022686D
:1012DC00B2F844309BB223F480439BB2A2F8443062
:1012EC0004B010BD2268B2F844309BB223F4005312
:1012FC009BB2A2F84430F3E72268B2F840309BB2BC
:10130C0023F004039BB2A2F840302268B2F84030BC
:10131C009BB223F008039BB2A2F840302046FFF7A3
:10132C000DF92268B2F844309BB223F480539BB27F
:10133C00A2F84430D4E7226832F8231004AA02EB56
:10134C00430222F8101C0133DBB2072BF3D92268BD
:10135C00B2F840309BB243F00103A2F8403022684F
:10136C00B2F840309BB223F001039BB2A2F840309C
:10137C002368B3F8442012F4806FF9D0B3F84420FA
:10138C0092B222F4806292B2A3F8442000230BE0C4
:10139C000023DAE7226804A901EB430131F8101CA1
:1013AC0022F823100133DBB2072BF3D92268B2F8F1
:1013BC0040309BB243F00803A2F840302268B2F8E8
:1013CC0044309BB223F400639BB2A2F844302268F1
:1013DC00B2F840309BB243F00403A2F840302046F0
:1013EC00FFF79CF87CE72268B2F844309BB223F4F8
:1013FC0000739BB2A2F844302046FFF776F86FE7F3
:10140C0010B50446084611F0800F26D101F0070CE8
:10141C000CEB8C0E4FEACE0E0EF5A87E04EB0E01F3
:10142C000CEB8C0C04EBCC0C4FF0000E8CF851E157
:10143C0000F0070008700A61CB70022B1DD094F8E5
:10144C009032012B1CD0012384F89032206800F0DC
:10145C005AF9002084F8900210BD01F0070C0CEB37
:10146C008C01C900103121440CEB8C0C04EBCC0C1E
:10147C004FF0010E8CF811E0DAE700230B71DEE778
:10148C000220E9E710B504460A4611F0800F1FD17F
:10149C0001F0070000EB8003DB0003F5A873E118F3
:1014AC0000EB800004EBC000002380F8513102F007
:1014BC0007020A7094F89032012B17D0012384F89C
:1014CC009032206800F004FB002084F8900210BDDC
:1014DC0001F0070000EB8003DB001033E11800EB98
:1014EC00800004EBC00001234374E0E70220EEE728
:1014FC0010B501F0070C0CEB8C01C90001F5A871BB
:10150C000CEB8C0E00EBCE0ECEF86421CEF86831CD
:10151C000024CEF86C418EF851418EF850C1014434
:10152C00006800F059FC204610BD38B501F0070CDE
:10153C000CEB8C01C90010310CEB8C0E00EBCE0EB9
:10154C00CEF824200CF1010202EB820440F8343076
:10155C0001258EF83450CEF8303000EBC402002454
:10156C0054608EF811508EF810C00144006800F0E1
:10157C0033FC204638BD38B501F007050279AA4284
:10158C0035D304460B4611F0800F1ED101EB8101BF
:10159C00C90001F5A871014403EB830300EBC303FD
:1015AC00002283F8512101238B700D7094F8903236
:1015BC00012B1ED0012384F89032206800F073FBBD
:1015CC007DB1002084F8900238BD05EB8501C9007F
:1015DC001031014405EB850300EBC30301225A745F
:1015EC00E1E704F52671206800F0E1FBE9E7012052
:1015FC00EAE70220E8E70B46017903F00F0291427B
:10160C0034D310B5044613F0800F21D103F0070238
:10161C0002EB8201C90001F5A871014402EB8202C0
:10162C0000EBC202002082F8510100228A7003F004
:10163C0007030B7094F89032012B19D0012384F816
:10164C009032206800F054FB002084F8900210BD0A
:10165C0003F0070202EB8201C9001031014402EBD6
:10166C00820200EBC20201205074DEE701207047B9
:10167C000220ECE711F0800F0BD001F0070101EB19
:10168C008101C9001031084452B90273C380002093
:10169C00704701EB8101C90001F5A8710844F3E71B
:1016AC000122027303811B0C4381F0E784B004A870
:1016BC0000E90E00002004B0704703460020A3F898
:1016CC0044004FF43F42A3F840207047B0F840303C
:1016DC0023F47C535B045B0CA0F840300020704773
:1016EC000020704784B0844604A800E90E00012352
:1016FC00ACF840300020ACF84000ACF84400ACF83A
:10170C00500004B0704710B5034691F800C030F893
:10171C002C2092B222F4EC4222F0700292B2C878E1
:10172C00032861D8DFE800F0555C0258002048F22D
:10173C00800E42EA0E0223F82C2091F800C033F8F8
:10174C002C2092B222F4E04222F0700242EA0C0207
:10175C0042EA0E0223F82C200A7B002A40F0DC809F
:10176C004A78002A51D0B3F8502092B21A440C781F
:10177C0002EB0412B1F806C04FEA5C0C4FEA4C0CB9
:10178C00A2F800C40C7833F8242012F0400F0CD0CF
:10179C0033F8242092B222F4E04222F0700242F498
:1017AC00004242F0C00223F82420CA78012A1DD03E
:1017BC00097833F8212092B222F4E04222F0400260
:1017CC0082F0200242F4004242F0800223F82120F1
:1017DC0017E142F40072AAE742F4C0620020A6E7C7
:1017EC0042F480620020A2E70120A0E7097833F8D8
:1017FC00212092B222F4E04222F0400242F4004254
:10180C0042F0800223F82120FBE0B3F8502092B282
:10181C001A440C7802EB0412B1F806C04FEA5C0CC7
:10182C004FEA4C0CA2F808C4B3F8502092B21A44F8
:10183C000C7802EB0412B2F80CC4CCF3090CA2F82D
:10184C000CC40C693E2C39D94FEA541E14F01F0FEE
:10185C0001D10EF1FF3EB2F80CC41FFA8CFC4FEA1A
:10186C008E2E1FFA8EFE4CEA0E0C4CF4004CA2F895
:10187C000CC40C7833F8242012F4804F0CD033F8BD
:10188C00242092B222F4E04222F0700242F4404250
:10189C0042F0800223F82420097869BB33F8212018
:1018AC0092B222F4804222F0700282F4405242F44E
:1018BC00004242F0800223F82120A2E04CB9B2F899
:1018CC000C446FEA44446FEA5444A4B2A2F80C44AA
:1018DC00CFE74FEA540C14F0010F01D00CF1010CBE
:1018EC00B2F80C44A4B24FEA8C2C1FFA8CFC44EADC
:1018FC000C04A2F80C44BCE733F8212092B222F479
:10190C00804222F0700282F4005242F4004242F013
:10191C00800223F8212074E0CA78022A72D00C7855
:10192C0033F8242092B222F4E24222F0700242F404
:10193C00004242F0800223F82420B3F8502092B2E7
:10194C001A4491F800C002EB0C12B1F808C04FEA2F
:10195C005C0C4FEA4C0CA2F800C4B3F8502092B2C5
:10196C001A4491F800C002EB0C12B1F80AC04FEA0D
:10197C005C0C4FEA4C0CA2F808C44A78002A50D1EF
:10198C000C7833F8242012F4804F0CD033F8242038
:10199C0092B222F4E04222F0700242F4404242F051
:1019AC00800223F824200C7833F8242012F0400F06
:1019BC000CD033F8242092B222F4E04222F07002D0
:1019CC0042F4004242F0C00223F8242091F800C0F7
:1019DC0033F82C2092B222F4804222F0700282F46E
:1019EC00405248F28004224323F82C20097833F823
:1019FC00212092B222F4E04222F04002224323F84A
:101A0C00212010BD0C7833F8242092B222F4E0424D
:101A1C0022F0700242F4014242F0800223F82420AA
:101A2C008BE70C7833F8242012F4804F0CD033F869
:101A3C00242092B222F4E04222F0700242F440429E
:101A4C0042F0800223F824200C7833F8242012F082
:101A5C00400F0CD033F8242092B222F4E04222F052
:101A6C00700242F4004242F0C00223F82420CA78EB
:101A7C00012A1ED00C7833F8242092B222F4E042D2
:101A8C0022F0400282F0200242F4004242F0800236
:101A9C0023F82420097833F8212092B222F48042D2
:101AAC0022F0700242F4004242F0800223F821201E
:101ABC00A7E70C7833F8242092B222F4E04222F00B
:101ACC00400242F4004242F0800223F82420E1E775
:101ADC000B7B002B46D14B7813B30A7830F82230AD
:101AEC0013F0400F0CD030F822309BB223F4E043BB
:101AFC0023F0700343F4004343F0C00320F822307A
:101B0C000A7830F822309BB223F4E04323F04003F0
:101B1C0043F4004343F0800320F822300020704748
:101B2C000A7830F8223013F4804F0CD030F8223081
:101B3C009BB223F4E04323F0700343F4404343F09F
:101B4C00800320F822300A7830F822309BB223F43C
:101B5C00804323F0700343F4004343F0800320F8E8
:101B6C002230DBE74B78002B4ED10A7830F822304C
:101B7C0013F4804F0CD030F822309BB223F4E043A6
:101B8C0023F0700343F4404343F0800320F82230E9
:101B9C000A7830F8223013F0400F0CD030F8223095
:101BAC009BB223F4E04323F0700343F4004343F06F
:101BBC00C00320F822300A7830F822309BB223F48C
:101BCC00E04323F0700343F4004343F0C00320F8D8
:101BDC0022300A7830F822309BB223F4804323F071
:101BEC00700348F2800C43EA0C0320F822300A7888
:101BFC0030F822309BB223F4E04323F0400343EA55
:101C0C000C0320F8223089E70A7830F8223013F4DC
:101C1C00804F0CD030F822309BB223F4E04323F0F9
:101C2C00700343F4404343F0800320F822300A78D9
:101C3C0030F8223013F0400F0CD030F822309BB229
:101C4C0023F4E04323F0700343F4004343F0C00358
:101C5C0020F822300A7830F822309BB223F4E0438B
:101C6C0023F0700343F4404343F0800320F8223008
:101C7C000A7830F822309BB223F4E04323F040037F
:101C8C0048F2800C43EA0C0320F822300A7830F832
:101C9C0022309BB223F4804323F0700343EA0C03FD
:101CAC0020F822303AE74B788BB10A7830F82230A2
:101CBC009BB223F4E04323F0400383F0100343F47E
:101CCC00004343F0800320F82230002070470A784C
:101CDC0030F822309BB223F4804323F0700383F45A
:101CEC00805343F4004343F0800320F82230ECE7A8
:101CFC000B7B002B4BD14B7833B30A7830F8223066
:101D0C0013F0400F0CD030F822309BB223F4E04398
:101D1C0023F0700343F4004343F0C00320F8223057
:101D2C00CB78012B33D00A7830F822309BB223F4D5
:101D3C00E04323F0400383F0200343F4004343F0DB
:101D4C00800320F8223022E00A7830F8223013F495
:101D5C00804F0CD030F822309BB223F4E04323F0B8
:101D6C00700343F4404343F0800320F822300A7898
:101D7C0030F822309BB223F4804323F0700383F4B9
:101D8C00405343F4004343F0800320F822300020FA
:101D9C00704711B98023A0F84C3000207047002008
:101DAC00704700207047B0F8440080B270470020A4
:101DBC00704701335B0800EB420000F5806008E0DF
:101DCC000A7891F801C042EA0C2220F8042B023167
:101DDC00013B002BF4D1704770B505460C464A7890
:101DEC00012A3BD00B7B002B40F0A6828B690A6941
:101DFC00934240F284829B1A8B61B5F850309BB2AF
:101E0C002B44217803EB0113B3F80C14C1F3090133
:101E1C00A3F80C143E2A40F27682510912F01F0FDF
:101E2C0000D10139B3F80C2492B2890289B20A4369
:101E3C0042F40042A3F80C24227835F822309BB2ED
:101E4C0023F4804323F0700383F4405343F40043A2
:101E5C0043F0800325F82230002070BD8E6909699B
:101E6C008E4200D90E46237B73B3E378022B4DD000
:101E7C00236A9B1B2362217835F8213013F0400F25
:101E8C0000F0F581002A40F0E281B5F850309BB2A9
:101E9C002B4403EB0113B3F80C24C2F30902A3F88F
:101EAC000C243E2E40F2BA81710916F01F0F00D19E
:101EBC000139B3F80C2492B2890289B20A4342F474
:101ECC000042A3F80C24CBE1B6B23346E288616938
:101EDC002846FFF76EFFB5F850309BB22B442278A2
:101EEC0003EB0213A3F80464227835F822309BB27A
:101EFC0023F4E04323F0400383F0300343F4004326
:101F0C0043F0800325F822300020A6E7236A99428B
:101F1C0080F06681227835F822309BB223F4E043BE
:101F2C0023F0700343F4014343F0800325F822307F
:101F3C00236A9B1B2362227835F8223013F0400F62
:101F4C0000F0A7806378B3BBB5F850309BB22B443C
:101F5C0003EB0213B3F80C24C2F30902A3F80C240C
:101F6C003E2E0FD9710916F01F0F00D10139B3F8AD
:101F7C000C2492B2890289B20A4342F40042A3F8BB
:101F8C000C241AE04EB9B3F80C246FEA42426FEA03
:101F9C00524292B2A3F80C240FE0720816F0010F13
:101FAC0000D00132B3F80C1489B2920292B20A43F7
:101FBC00A3F80C2401E0012B30D0B3B26289616923
:101FCC002846FFF7F6FE636933446361236A22698E
:101FDC0093422DD99B1B23626378002B45D1B5F816
:101FEC0050309BB22B44227803EB0213B3F8042439
:101FFC00C2F30902A3F804243E2E1DD9710916F070
:10200C001F0F00D10139B3F8042492B2890289B2AE
:10201C000A4342F40042A3F8042428E0B5F85030F7
:10202C009BB22B4403EB0213B2B2A3F80C24C4E70B
:10203C00002222621E46CFE74EB9B3F804246FEAA1
:10204C0042426FEA524292B2A3F804240FE07208A3
:10205C0016F0010F00D00132B3F8041489B29202C9
:10206C0092B20A43A3F8042401E0012B06D0B3B2C8
:10207C00228961692846FFF79CFE35E7B5F8503098
:10208C009BB22B44227803EB0213B2B2A3F80424C4
:10209C00EDE76378B3BBB5F850309BB22B4403EB40
:1020AC000213B3F80424C2F30902A3F804243E2E4D
:1020BC000FD9710916F01F0F00D10139B3F80424A0
:1020CC0092B2890289B20A4342F40042A3F8042472
:1020DC001AE04EB9B3F804246FEA42426FEA524256
:1020EC0092B2A3F804240FE0720816F0010F00D08E
:1020FC000132B3F8041489B2920292B20A43A3F8E3
:10210C00042401E0012B30D0B3B222896169284646
:10211C00FFF74FFE636933446361236A226993427C
:10212C002DD99B1B23626378002B45D1B5F8503019
:10213C009BB22B44227803EB0213B3F80C24C2F3AA
:10214C000902A3F80C243E2E1DD9710916F01F0F9D
:10215C0000D10139B3F80C2492B2890289B20A4336
:10216C0042F40042A3F80C2428E0B5F850309BB29E
:10217C002B4403EB0213B2B2A3F80424C4E70022ED
:10218C0022621E46CFE74EB9B3F80C246FEA4242E6
:10219C006FEA524292B2A3F80C240FE0720816F0C8
:1021AC00010F00D00132B3F80C1489B2920292B232
:1021BC000A43A3F80C2401E0012B06D0B3B26289C8
:1021CC0061692846FFF7F5FD8EE6B5F850309BB2F5
:1021DC002B44227803EB0213B2B2A3F80C24EDE7E4
:1021EC00217835F8212092B222F4E24222F07002DA
:1021FC0042F4004242F0800225F82120B5F850202C
:10220C0092B22A44217802EB01129BB2A2F8043458
:10221C00228961692846FFF7CCFD65E64EB9B3F813
:10222C000C246FEA42426FEA524292B2A3F80C2499
:10223C0016E0720816F0010F00D00132B3F80C143E
:10224C0089B2920292B20A43A3F80C2408E0B5F8C2
:10225C0050309BB22B4403EB0113B2B2A3F80C2405
:10226C00B3B2628961692846FFF7A3FD3CE6B2BBB5
:10227C00B5F850309BB22B4403EB0113B3F8042494
:10228C00C2F30902A3F804243E2E0FD9710916F0EB
:10229C001F0F00D10139B3F8042492B2890289B21C
:1022AC000A4342F40042A3F8042421E04EB9B3F8E7
:1022BC0004246FEA42426FEA524292B2A3F8042419
:1022CC0016E0720816F0010F00D00132B3F80414B6
:1022DC0089B2920292B20A43A3F8042408E0B5F83A
:1022EC0050309BB22B4403EB0113B2B2A3F804247D
:1022FC00B3B2228961692846FFF75BFDF4E5002241
:10230C008A611A4679E54AB9B3F80C246FEA42425D
:10231C006FEA524292B2A3F80C248DE5510812F0E8
:10232C00010F00D00131B3F80C2492B2890289B2AA
:10233C000A43A3F80C247FE5CB78022B4DD0012B5C
:10234C0040F02F8189692369994240F2E680C91ACD
:10235C00A161F2B9B5F8502092B22A44217802EB6F
:10236C000112B2F80414C1F30901A2F804143E2BB3
:10237C0040F2D780580913F01F0F00D10138B2F882
:10238C00041489B2800280B2014341F40041A2F8E6
:10239C0004146278002A40F0F680B5F8502092B20E
:1023AC002A44217802EB0112B2F80C14C1F3090192
:1023BC00A2F80C143E2B40F2CD80590913F01F0FDC
:1023CC0000D10139B2F80C349BB2890289B20B43AB
:1023DC0043F40043A2F80C342EE5F2B9B0F85030B7
:1023EC009BB203440A7803EB0213B3F80424C2F340
:1023FC000902A3F804240A693E2A31D9510912F0C2
:10240C001F0F00D10139B3F8042492B2890289B2AA
:10241C000A4342F40042A3F804246378002B51D100
:10242C00B5F850309BB22B44227803EB0213B3F86F
:10243C000C24C2F30902A3F80C2422693E2A28D9E1
:10244C00510912F01F0F00D10139B3F80C2492B2CC
:10245C00890289B20A4342F40042A3F80C2433E007
:10246C004AB9B3F804246FEA42426FEA524292B27C
:10247C00A3F80424D1E7510812F0010F00D0013168
:10248C00B3F8042490B28A0292B20243A3F8042453
:10249C00C3E74AB9B3F80C246FEA42426FEA5242DE
:1024AC0092B2A3F80C240FE0510812F0010F00D0E7
:1024BC000131B3F80C2490B28A0292B20243A3F811
:1024CC000C2401E0012B1DD0E369002B3FF4B4ACCC
:1024DC00227835F8221044F2400303EA01008B43C2
:1024EC0002D000287FF4A8AC35F822309BB223F43C
:1024FC00E04323F0700343F4004343F0C00325F89A
:10250C00223099E4B5F850309BB22B44227803EB7F
:10251C000213228AA3F80C24D6E70023A3610B46EE
:10252C0017E74BB9B2F804146FEA41416FEA514115
:10253C0089B2A2F804142CE7590813F0010F00D04B
:10254C000131B2F8040480B2890289B20143A2F8C5
:10255C0004141EE74BB9B2F80C346FEA43436FEA2C
:10256C0053439BB2A2F80C3466E4590813F0010FE4
:10257C0000D00131B2F80C3498B28B029BB20343F9
:10258C00A2F80C3458E4012A7FF456ACB5F850206C
:10259C0092B22A44217802EB01129BB2A2F80C34BD
:1025AC004AE4012059E410B45C0800EB420000F549
:1025BC00806007E030F8042B0A70C2F307224A70DF
:1025CC000231013C002CF5D113F0010F01D003882E
:1025DC000B7010BC7047000010B504460E4B1A78F7
:1025EC004FF47A73B3FBF2F30C4A1068B0FBF3F0C0
:1025FC0000F02AFC68B90F2C01D901200AE0002256
:10260C0021464FF0FF3000F001FC054B1C60002010
:10261C0000E0012010BD00BF630000206800002016
:10262C006400002008B5074A136843F010031360D8
:10263C00032000F0D9FB0F20FFF7CEFFFDF720FEA3
:10264C00002008BD00200240034A1168034B1B7890
:10265C000B441360704700BF180900206300002072
:10266C00014B1868704700BF1809002082B0084B56
:10267C001B68084AA2FB03235B0A00FB03F30193CC
:10268C0000BF019B5A1E0192002BF9D102B070477A
:10269C0068000020D34D6210002800F0F18170B565
:1026AC0082B00446036813F0010F2CD0994B5B6881
:1026BC0003F00C03042B1DD0964B5B6803F00C034A
:1026CC00082B12D06368B3F5803F41D0002B55D155
:1026DC0003F1804303F504331A6822F480321A6044
:1026EC001A6822F480221A6037E08A4B5B6813F474
:1026FC00803FE7D0874B1B6813F4003F03D063681F
:10270C00002B00F0BF81236813F0020F75D0814BB2
:10271C005B6813F00C0F5FD07E4B5B6803F00C030F
:10272C00082B54D02369002B00F08A807A4B0122AD
:10273C001A60FFF795FF0546764B1B6813F0020FE6
:10274C0075D1FFF78DFF401B0228F5D903209EE1C0
:10275C00704A136843F480331360636843B3FFF724
:10276C007FFF05466B4B1B6813F4003FCBD1FFF783
:10277C0077FF401B6428F5D9032088E1B3F5A02F1F
:10278C0009D0644B1A6822F480321A601A6822F459
:10279C0080221A60E1E703F18043A3F53C331A6809
:1027AC0042F480221A601A6842F480321A60D4E72C
:1027BC00FFF756FF0546574B1B6813F4003FA2D09A
:1027CC00FFF74EFF401B6428F5D903205FE1514B06
:1027DC005B6813F4803FA5D14E4B1B6813F0020FBE
:1027EC0003D02369012B40F04F814A4A136823F030
:1027FC00F803616943EAC1031360236813F0080FFF
:10280C0033D0A369002B5CD0434B0122C3F8802446
:10281C00FFF726FF05463F4B5B6A13F0020F21D1F1
:10282C00FFF71EFF401B0228F5D903202FE1394A80
:10283C00136823F0F803616943EAC1031360DCE712
:10284C00354B00221A60FFF70BFF0546314B1B6816
:10285C0013F0020FD1D0FFF703FF401B0228F5D96C
:10286C00032014E10120FFF701FF236813F0040F8C
:10287C0000F09680274BDB6913F0805F34D1254B39
:10288C00DA6942F08052DA61DB6903F0805301931C
:10289C00019B0125214B1B6813F4807F26D0E36834
:1028AC00012B3DD0002B53D103F1804303F50433AE
:1028BC001A6A22F001021A621A6A22F004021A62DF
:1028CC0033E0154B0022C3F88024FFF7C9FE054600
:1028DC00104B5B6A13F0020FC7D0FFF7C1FE401B11
:1028EC000228F5D90320D2E00025D3E70B4A136860
:1028FC0043F480731360FFF7B3FE0646074B1B6867
:10290C0013F4807FCBD1FFF7ABFE801B6428F5D985
:10291C000320BCE000100240000042420070004066
:10292C005F4A136A43F001031362E36833B3FFF7A2
:10293C0097FE06465A4B1B6A13F0020F2FD1FFF776
:10294C008FFE801B41F288339842F3D903209EE01E
:10295C00052B09D0524B1A6A22F001021A621A6A2C
:10296C0022F004021A62E0E74D4B1A6A42F00402AC
:10297C001A621A6A42F001021A62D6E7FFF770FE79
:10298C000646474B1B6A13F0020F08D0FFF768FE90
:10299C00801B41F288339842F3D9032077E0E5B9E4
:1029AC00E369002B72D03E4A526802F00C02082AEE
:1029BC0056D0022B17D03B4B00221A66FFF750FE65
:1029CC000446374B1B6813F0007F47D0FFF748FED7
:1029DC00001B0228F5D9032059E0314AD36923F0B2
:1029EC008053D361DCE72F4B00221A66FFF738FEC9
:1029FC0005462B4B1B6813F0007F06D0FFF730FE0B
:102A0C00401B0228F5D9032041E0236AB3F5803F2F
:102A1C001AD023494B6823F47413226A606A024368
:102A2C0013434B601F4B01221A66FFF719FE044635
:102A3C001B4B1B6813F0007F0ED1FFF711FE001B20
:102A4C000228F5D9032022E0154A536823F40033F9
:102A5C00A1680B435360DCE7002018E0002016E06F
:102A6C00012B16D00E4B5B6803F48031226A914225
:102A7C0011D103F47013626A93420ED1002006E068
:102A8C0001207047012002E0012000E0002002B08C
:102A9C0070BD0120FBE70120F9E70120F7E700BF3B
:102AAC0000100240000042420F4B5B6803F00C0226
:102ABC00082A01D00D487047C3F383420C49885C47
:102ACC0013F4803F0BD0084B5B68C3F34043094AB7
:102ADC00D35C064A02FB00F0B0FBF3F07047064BE8
:102AEC0003FB00F0704700BF0010024000127A0098
:102AFC00883B0008843B000800093D00002800F0DA
:102B0C00A08070B50D460446524B1B6803F00703BA
:102B1C008B420BD24F4A136823F007030B4313600D
:102B2C00136803F007038B4240F08D80236813F089
:102B3C00020F17D013F0040F04D0474A536843F424
:102B4C00E0635360236813F0080F04D0424A5368C3
:102B5C0043F460535360404A536823F0F003A16878
:102B6C000B435360236813F0010F31D06368012BC2
:102B7C0020D0022B25D0384A126812F0020F64D0F4
:102B8C0035494A6822F0030213434B60FFF768FD96
:102B9C000646314B5B6803F00C036268B3EB820FA3
:102BAC0016D0FFF75DFD801B41F288339842F0D9B7
:102BBC00032045E0284A126812F4003FE0D10120BE
:102BCC003EE0254A126812F0007FD9D1012037E08F
:102BDC00204B1B6803F00703AB420AD91D4A13684C
:102BEC0023F007032B431360136803F00703AB4276
:102BFC002DD1236813F0040F06D0174A536823F421
:102C0C00E063E1680B435360236813F0080F07D0AF
:102C1C00114A536823F46053216943EAC10353609A
:102C2C00FFF742FF0C4B5B68C3F303130B4AD35CF7
:102C3C00D8400B4B18600B4B1868FFF7CDFC0020ED
:102C4C0070BD012070470120FAE70120F8E7012050
:102C5C00F6E700BF0020024000100240983B00083D
:102C6C00680000206400002070B582B00446036840
:102C7C0013F0010F36D03F4BDB6913F0805F49D165
:102C8C003C4BDA6942F08052DA61DB6903F0805325
:102C9C000193019B0125384B1B6813F4807F3BD0BB
:102CAC00344B1B6A13F4407313D0626802F4407205
:102CBC009A420ED02F4A136A23F440702F490126F2
:102CCC00C1F840640026C1F84064106213F0010F93
:102CDC0036D1284A136A23F4407361680B4313629C
:102CEC00002D3ED1236813F0020F06D0214A536801
:102CFC0023F44043A1680B435360236813F0100F77
:102D0C0034D01C4A536823F48003E1680B435360AE
:102D1C0000202CE00025BEE7174A136843F48073AB
:102D2C001360FFF79DFC0646134B1B6813F4807F62
:102D3C00B6D1FFF795FC801B6428F5D9032016E06B
:102D4C00FFF78EFC06460B4B1B6A13F0020FC0D12B
:102D5C00FFF786FC801B41F288339842F3D903209D
:102D6C0005E0D36923F08053D361BBE7002002B0A8
:102D7C0070BD00BF001002400070004000004242D5
:102D8C00002808DB0901C9B200F1604000F5614080
:102D9C0080F80013704700F00F000901C9B2014B15
:102DAC001954704714ED00E000B500F00700C0F1B5
:102DBC00070CBCF1040F28BF4FF0040C031D062BAD
:102DCC000FD9C31E4FF0FF3E0EFA0CF021EA0001A2
:102DDC0099400EFA03FE22EA0E0241EA02005DF867
:102DEC0004FB0023EEE70000074AD36823F4E063FA
:102DFC001B041B0C000200F4E060034343F0BF63B0
:102E0C0043F40033D360704700ED00E010B5044686
:102E1C00054BD868C0F30220FFF7C6FF01462046D9
:102E2C00FFF7AEFF10BD00BF00ED00E0002807DB90
:102E3C0000F01F02400901239340024A42F820305F
:102E4C00704700BF00E100E00138B0F1807F0BD289
:102E5C004FF0E0235861054AF02182F8231000203E
:102E6C00986107221A6170470120704700ED00E05D
:102E7C00704798B108B50346D0F8B40210B10020E1
:102E8C00C3F8B40209B1C3F8B012012183F89C1243
:102E9C001A701846FDF758FB002008BD0220704739
:102EAC0019B1C0F8B412002070470220704708B561
:102EBC00FDF784FB002008BD08B5D0F8B4322BB167
:102ECC001B68984700B908BD0220FCE70220FAE70E
:102EDC0008B5D0F8B4325B689847002008BD38B507
:102EEC00044600F52A75284600F035F90123C4F88C
:102EFC009432B4F8AE32C4F8983294F8A81201F0B7
:102F0C001F03012B08D0022B0BD07BB9294620467E
:102F1C0000F0D0FA002038BD2946204600F0FEFA19
:102F2C00F8E72946204600F029FBF3E701F0800181
:102F3C002046FDF75EFBEDE738B504460D4691BB28
:102F4C001346D0F89422032A03D0052A24D008462D
:102F5C0033E0D0F86011D0F8642191420DD9891A70
:102F6C00C0F860118A4206D98AB21946204600F090
:102F7C0037FC284621E092B2F7E7D0F8B4321B694F
:102F8C001BB190F89C22032A04D0204600F030FCA0
:102F9C00284612E09847F8E70021C0F89412FDF794
:102FAC0028FB284609E0D0F8B4329B6933B190F87D
:102FBC009C22032A04D19847002038BD0220FCE74C
:102FCC000220FAE738B504460D46002953D11346C2
:102FDC00D0F89422022A0CD0042A00D01AB98021ED
:102FEC002046FDF706FB94F8A032012B3ED0284674
:102FFC0038BD026A416A8A421BD8C269B2FBF1F33E
:10300C0001FB13232BB9914203D8D0F898329A4282
:10301C001CD3D4F8B432DB681BB194F89C22032A7D
:10302C0021D080212046FDF7E4FA204600F0EBFB8E
:10303C00D9E7521A026292B2194600F0BAFB002389
:10304C001A4619462046FDF70AFBCCE7002211462A
:10305C0000F0AFFB0021C4F898120B460A4620463C
:10306C00FDF7FDFABFE720469847DAE7002384F81E
:10307C00A0322846BCE7D0F8B4325B6933B190F883
:10308C009C22032A04D198470020B1E70220AFE725
:10309C000220ADE770B50446402300221146FDF72F
:1030AC0095FA0125C4F858514026C4F8646133469A
:1030BC00002280212046FDF789FAA561666284F81A
:1030CC009C520023C4F894326360C4F8A432D4F840
:1030DC00B8322BB1D4F8B4325B6800212046984743
:1030EC00002070BD01740020704790F89C3280F86D
:1030FC009D32042380F89C320020704790F89C325B
:10310C00042B01D00020704790F89D3280F89C323F
:10311C00F8E708B590F89C32032B01D0002008BDCD
:10312C00D0F8B432DB69002BF8D09847F6E70346A9
:10313C00002002E00130C0B201331A78002AF9D124
:10314C00704708B54B88012B00D008BDC0F8A432DD
:10315C0000F04EFBF9E70B7803704B7843708B78DB
:10316C00CA7803EB022343800B794A7903EB0223E1
:10317C0083808B79CA7903EB0223C380704710B527
:10318C0004468021FDF735FA00212046FDF731FA7F
:10319C0010BD30B583B005460C460023ADF80630A3
:1031AC004A88130A013B062B00F2A480DFE803F0E7
:1031BC0004182CA2A2869300D0F8B0321B680DF133
:1031CC000601007C9847BDF806201AB1E388002B55
:1031DC0040F09480E388002B00F09A8003B030BD5F
:1031EC00037C43B9D0F8B4329B6A0DF106009847C2
:1031FC0002234370E7E7D0F8B432DB6A0DF1060026
:10320C00984702234370DEE7D2B2052A52D8DFE892
:10321C0002F003101D2A3744D0F8B0325B6823B19A
:10322C000DF10601007C9847CDE72146FFF7A7FF7B
:10323C00D4E7D0F8B0329B6823B10DF10601007CC5
:10324C009847C0E72146FFF79AFFC7E7D0F8B0329E
:10325C00DB6823B10DF10601007C9847B3E72146EA
:10326C00FFF78DFFBAE7D0F8B0321B6923B10DF12F
:10327C000601007C9847A6E72146FFF780FFADE7E3
:10328C00D0F8B0325B6923B10DF10601007C984790
:10329C0099E72146FFF773FFA0E7D0F8B0329B699E
:1032AC0023B10DF10601007C98478CE72146FFF70E
:1032BC0066FF93E72146FFF762FF8FE7037C33B984
:1032CC00D0F8B4325B6B0DF1060098477BE72146D2
:1032DC00FFF755FF82E7037C43B9D0F8B4321B6B80
:1032EC000DF106009847072343706CE72146FFF762
:1032FC0046FF73E72146FFF742FF6FE79A4228BF6C
:10330C001A46ADF806200146284600F045FA61E75A
:10331C00284600F06DFA61E738B504468B88F3B99E
:10332C00CB88E3B94B887F2B19D803F07F0590F835
:10333C009C32032B0CD080F89E522946FDF77FF966
:10334C00204600F055FA35B1022384F89C3209E08E
:10335C00FFF715FF06E0012384F89C3202E02046BB
:10336C00FFF70DFF38BD000038B504460D468978CF
:10337C00284B197001290ED890F89C32022B0ED0D4
:10338C00032B21D02946FFF7FAFE224B1978204651
:10339C00FFF79EFD02E02946FFF7F1FE38BD81B133
:1033AC004160032380F89C32FFF786FD022803D08E
:1033BC00204600F01DFAF1E729462046FFF7DFFE14
:1033CC00ECE700F015FAE9E789B1436899421DD0A2
:1033DC00D9B2FFF77DFD0F4B197861602046FFF7DE
:1033EC006BFD02280DD0204600F002FAD6E702232E
:1033FC0080F89C324160FFF76BFD204600F0F8F935
:10340C00CCE729462046FFF7BAFEC7E700F0F0F9F3
:10341C00C4E700BF1C09002008B5CB88012B0AD1DA
:10342C0090F89C32022B09D9032B11D10122011DDA
:10343C0000F0B2F901E0FFF7A2FE08BD5BB23BB1B0
:10344C000146002341F8083F012200F0A5F9F4E7FA
:10345C00FFF795FEF1E708B590F89C32013B022B83
:10346C0012D8CB88022B0CD10123C360D0F8A43224
:10347C000BB10323C360022200F10C0100F08CF9A4
:10348C0008BDFFF77CFEFBE7FFF779FEF8E708B510
:10349C0090F89C32013B022B09D84B88012B00D0B1
:1034AC0008BD0023C0F8A43200F0A2F9F8E7FFF73A
:1034BC0066FEF5E708B50B7803F06003202B05D00A
:1034CC00402B03D043B1FFF75AFE03E0D0F8B432DF
:1034DC009B689847002008BD4B78092B1BD8DFE868
:1034EC0003F011171A141A08051A0E0BFFF751FEE8
:1034FC00F0E7FFF711FFEDE7FFF736FFEAE7FFF71D
:10350C008BFFE7E7FFF7A7FFE4E7FFF71AFEE1E71A
:10351C00FFF7BDFFDEE7FFF732FEDBE738B5054608
:10352C000C460B7803F06003202B06D0402B04D004
:10353C001BB1FFF724FE002038BD95F89C32013BEF
:10354C00022B16D82379012B0ED8D5F8B4329B68F0
:10355C00214628469847E388002BECD10028EAD175
:10356C00284600F045F9E6E721462846FFF707FE16
:10357C00E1E721462846FFF702FEDCE770B5054679
:10358C008B880C7804F06004202C07D0DAB2402C25
:10359C0004D05CB1FFF7F3FD002405E0D5F8B4329C
:1035AC009B68284698470024204670BD202C09D0E3
:1035BC004E78012E33D0032E0AD0002E55D0FFF7B3
:1035CC00DEFDF1E7D0F8B4329B6898470446EBE790
:1035DC0090F89C32022B04D0032B11D0FFF7CFFDB7
:1035EC00E2E70AB1802A03D12846FFF7C8FDDBE7E2
:1035FC001146FCF7FEFF80212846FCF7FAFFD3E7C3
:10360C004B8823B91AB1802A01D0CB881BB128462C
:10361C0000F0EEF8C8E71146FCF7EBFFF7E790F87F
:10362C009C32022B04D0032B11D0FFF7A8FDBBE773
:10363C000AB1802A03D12846FFF7A1FDB4E7114651
:10364C00FCF7D7FF80212846FCF7D3FFACE74B886B
:10365C00002BA9D112F07F0F03D1284600F0C8F837
:10366C00A2E71146FCF7CDFFF7E790F89C02022881
:10367C0006D0032829D02846FFF781FD344693E76E
:10368C000AB1802A13D113F0800F15D102F07F02FA
:10369C0002EB8202910001F5A87129440431002348
:1036AC000B600222284600F077F834467CE7284667
:1036BC00FFF765FD344677E702F07F0202EB8202EA
:1036CC009100103129440431E9E75BB2002B1FDB78
:1036DC0002F00F0000EB800005EB8000D0F85801E1
:1036EC0020B3002B27DB02F07F0303EB83039C004A
:1036FC0004F5A8742C4404340AB1802A24D1002384
:10370C00236002222146284600F046F834464BE757
:10371C0002F00F0000EB800005EB800080690028B0
:10372C00DFD12846FFF72BFD34463DE72846FFF74F
:10373C0026FD344638E702F07F0303EB83039C003D
:10374C0010342C440434D7E711462846FCF761FFAB
:10375C0010B101232360D4E700232360D1E7D0B15B
:10376C0070B50D4616460446FFF7E1FC431C5B00A2
:10377C009BB233802B7003236B70022307E0013460
:10378C005A1CD2B2E8540233DBB20021A95420787F
:10379C000028F4D170BD704708B513460222C0F85A
:1037AC009422C36103620A460021FCF750FF0020FB
:1037BC0008BD08B513460A460021FCF748FF002057
:1037CC0008BD08B513460322C0F89422C0F85C313A
:1037DC00C0F860310A460021FCF741FF002008BD0B
:1037EC0008B513460A460021FCF739FF002008BD36
:1037FC0008B50423C0F8943200231A461946FCF786
:10380C0026FF002008BD08B50523C0F8943200231C
:10381C001A461946FCF723FF002008BD2923038014
:10382C0000487047DC0000202923038000487047C3
:10383C00B00000202923038000487047840000203A
:10384C00D0F8B83200201876704710B5D0F8B842CE
:10385C006369012B01D0002010BDD0F8BC32DB68AD
:10386C0061782078984700236361F4E70A2303808A
:10387C00004870476C00002038B50446D0F8B852A8
:10388C00D0F8BC32DB6869782878984708232A4638
:10389C0001212046FCF7E3FE002038BD70B582B054
:1038AC00D0F8B8520023ADF806300C7814F0600450
:1038BC002FD0202C7DD14B78023B092B25D8DFE86B
:1038CC0003F0150924242424241C10058B78AB60E8
:1038DC00002471E0012205F10801FFF75DFF0024CF
:1038EC006AE04B881B0AEB60002465E0012205F1BD
:1038FC000C01FFF751FF00245EE001236B61CA88C5
:10390C002946FFF75EFF002456E0FFF738FC02243F
:10391C0052E04E780B2E48D8DFE806F006474747B2
:10392C004747154747472E3C90F89C32032B03D052
:10393C00FFF725FC02243FE002220DF10601FFF700
:10394C002BFF344638E04B881B0A222B06D0212B48
:10395C000CD000210A46FFF71FFF2DE0CA88032A6E
:10396C0028BF0322D0F8BC321968F4E7CA88092AA8
:10397C0028BF09221249EEE790F89C32032B03D0A2
:10398C00FFF7FDFB022417E0012205F11001FFF700
:10399C0003FF11E090F89C32032B02D18B782B6142
:1039AC000AE0FFF7ECFB022406E0FFF7E8FB022439
:1039BC0002E0FFF7E4FB0224204602B070BD00BF1A
:1039CC007800002038B504468121FCF70AFE00255A
:1039DC00E56201212046FCF704FEC4F86C51D4F8D2
:1039EC00B8324BB1D4F8BC329B689847D4F8B802C3
:1039FC00FCF742FEC4F8B852002038BD70B504463E
:103A0C00022303228121FCF7E1FD0125E56202235B
:103A1C00032229462046FCF7D9FDC4F86C511C2022
:103A2C00FCF726FEC4F8B80270B1054600260676EF
:103A3C00D4F8BC325B68984708232A4601212046FB
:103A4C00FCF70DFE304670BD0120FCE719B1C0F843
:103A5C00BC1200207047022070470000FFF708FAE4
:103A6C000B480C490C4A002302E0D458C4500433D0
:103A7C00C4188C42F9D3094A094C002301E01360A5
:103A8C000432A242FBD300F017F8FCF7DAFB7047C4
:103A9C000000002040010020B03B00084001002045
:103AAC0020090020FEE703460244934200D17047F0
:103ABC0003F8011BF9E7000070B500260C4D0D4C06
:103ACC00641BA410A64209D100F01AF800260A4D76
:103ADC000A4C641BA410A64205D170BD55F8043BDA
:103AEC0098470136EEE755F8043B98470136F2E764
:103AFC00A83B0008A83B0008A83B0008AC3B00080A
:103B0C00F8B500BFF8BC08BC9E467047F8B500BFBE
:083B1C00F8BC08BC9E4670478E
:103B240053544D333220437573746F6D2048756D53
:103B3400616E20696E7465726661636500000000E1
:103B440053544D6963726F656C656374726F6E690B
:103B540063730000437573746F6D204849442043B8
:103B64006F6E666967000000437573746F6D20485B
:103B7400494420496E746572666163650000000003
:103B84000102000002030405060708090A0B0C0DD4
:103B94000E0F1010000000000000000001020304DA
:043BA40006070809FF
:043BA800750100089B
:043BAC004D010008BF
:103BB0001A030000000000000000000000000000E8
:103BC00000000000000000000000000004030904E1
:103BD000120100020000004083045A570002010253
:103BE000030100002503000831030008F503000865
:103BF000D1030008BD0300081104000835040008C3
:103C000060000020590400085D04000861040008F9
:103C1000A101C0011000000000127A000A06000293
:103C200000000040010000000921110100012203F1
:103C30000000000009022900010100C0320904004F
:103C40000002030000000921110100012203000706
:103C500005810302000507050103020005000000BD
:103C600009022900010100C032090400000203001A
:103C70000000092111010001220300070581030250
:103C800000050705010302000500000009022900E4
:103C9000010100C0320904000002030000000921F4
:103CA0001101000122030007058103020005070539
:103CB0000103020005000000093A0008D13900089C
:103CC000A938000800000000573800084D380008E7
:103CD000853800080000000000000000000000001F
:103CE00035380008293800084138000879380008BC
:0400000508003A694C
:00000001FF
